S010000050726F626C656D332E7372656310
S113000071C000008EC000008CC000008AC00000D7
S113001088C0000086C0000084C0000082C00000C8
S113002080C000007EC000007CC000007AC00000D8
S113003078C0000076C0000074C0000072C00000E8
S113004070C000006EC000006CC000006AC00000F8
S113005068C0000066C0000064C0000062C0000008
S113006060C000003FC30000B4C100005AC00000DB
S113007058C0000056C0000054C0000052C0000028
S113008050C000004EC000004CC000004AC0000038
S113009054C30000EAC1000044C0000042C0000094
S11300A040C000003EC000003CC000003AC0000058
S11300B038C0000036C0000034C0000032C0000068
S11300C030C000002EC000002CC0000061C300003E
S11300D018C2000026C0000086C300005EC20000F3
S11300E020C0000011241FBECFEFD1E2DEBFCDBF80
S11300F000E00CBF12E0A0E0B2E0E8E5FDE000E0C3
S11301000BBF02C007900D92A837B107D9F724E0BE
S1130110A8E7B2E001C01D92AE31B207E1F754D0B6
S113012019C66ECF000000000000000000008A9590
S11301308CF044F400000000000000000000000007
S1130140000000008A95000000000000000000008C
S11301508CF708958196880F880F880F889F8A9559
S11301604CF7FF920F931F93CF93DF932D99FECFFC
S113017080E090E0D7DF01E010E0C0E0D0E0F12CB7
S113018003C021960F5F1F4F209729F4F3B080E03E
S113019090E0C8DFF6CF83B190E00C2E02C0880F48
S11301A0991F0A94E2F7F82A80E090E0BBDF083058
S11301B011053CF380E090E027D08F2DDF91CF91A3
S11301C01F910F91FF90089514B806E010E020E805
S11301D035E240E050E06CE070E08BE090E067D006
S11301E046E050E060E875E280E090E039D570D5F3
S11301F0B8DFB7DF9FEB980F9A3110F4805E01C02F
S1130200805224D042D5F5CF892B69F025B181E005
S113021090E00090780202C0880F991F0A94E2F7D8
S1130220822B85B90DC025B181E090E00090780261
S113023002C0880F991F0A94E2F78095822385B93A
S113024080917A0290917B026DCF08951F93CF9392
S1130250DF93182F80E090E0D7DFC8E0D0E0812F53
S1130260817090E0D1DF16952197C9F781E090E085
S1130270CBDFDF91CF911F9108958533910589F0EC
S1130280E2E3F2E021E030E041915191481759074F
S113029059F02F5F3F4F28303105B1F78FEF9FEFB3
S11302A0089580E090E00895822F932F0895CF92CF
S11302B0DF92EF92FF920F931F93CB0169017A01B2
S11302C0DCDF21E030E002C0220F331F8A95E2F721
S11302D0309379022093780261E070E080E090E04E
S11302E0A7019601F9D460E472E4269FC001279F18
S11302F0900D369F900D112490937B0280937A0287
S113030010931D0400931C041F910F91FF90EF9014
S1130310DF90CF900895CF93DF93E82FF0E0DF01D3
S1130320AA0FBB1FAA0FBB1FAA0FBB1FA458BD4F08
S113033013968C9181FD49C09FB7F894DF01AA0FF1
S1130340BB1FAA0FBB1FAA0FBB1FA458BD4F1196FA
S11303508C9111971696CD91DC911797C80FD11DEA
S11303602881EB0128838F5F12962C9112978223A8
S113037011968C93119714962D913C9115972150B9
S1130380310915963C932E9314972C9182130FC028
S1130390DF01AA0FBB1FAA0FBB1FAA0FBB1FA458C4
S11303A0BD4F13968C911397826013968C93EE0F26
S11303B0FF1FEE0FFF1FEE0FFF1FE458FD4F838159
S11303C08E7F83839FBF81E001C080E0DF91CF9166
S11303D008951F920F920FB60F9211240BB60F922D
S11303E02F933F934F935F936F937F938F939F9339
S11303F0AF93BF93EF93FF93CF93DF931F92CDB748
S1130400DEB780910102E82FF0E0EE0FFF1FEE0F40
S1130410FF1FEE0FFF1FE458FD4F938191FF08C0AB
S1130420E0912802F091290281818F7D818307C0A8
S1130430BE016F5F7F4F6FDF89818093C6000F908D
S1130440DF91CF91FF91EF91BF91AF919F918F91E8
S11304507F916F915F914F913F912F910F900BBEC0
S11304600F900FBE0F901F9018951F920F920FB60A
S11304700F9211240BB60F922F933F934F935F93D8
S11304806F937F938F939F93AF93BF93EF93FF9358
S1130490CF93DF931F92CDB7DEB780910B02E82F85
S11304A0F0E0EE0FFF1FEE0FFF1FEE0FFF1FE458EB
S11304B0FD4F938191FF08C0E0912A02F0912B0235
S11304C081818F7D818307C0BE016F5F7F4F23DFF2
S11304D089818093CE000F90DF91CF91FF91EF91AE
S11304E0BF91AF919F918F917F916F915F914F9148
S11304F03F912F910F900BBE0F900FBE0F901F9046
S113050018951F920F920FB60F9211240BB60F92EB
S11305102F933F934F935F936F937F938F939F9307
S1130520AF93BF93EF93FF93CF93DF931F92CDB716
S1130530DEB780911502E82FF0E0EE0FFF1FEE0FFB
S1130540FF1FEE0FFF1FE458FD4F938191FF08C07A
S1130550E0912C02F0912D0281818F7D818307C06F
S1130560BE016F5F7F4FD7DE89818093D6000F90E5
S1130570DF91CF91FF91EF91BF91AF919F918F91B7
S11305807F916F915F914F913F912F910F900BBE8F
S11305900F900FBE0F901F9018951F920F920FB6D9
S11305A00F9211240BB60F922F933F934F935F93A7
S11305B06F937F938F939F93AF93BF93EF93FF9327
S11305C0CF93DF931F92CDB7DEB780911F02E82F40
S11305D0F0E0EE0FFF1FEE0FFF1FEE0FFF1FE458BA
S11305E0FD4F938191FF08C0E0912E02F0912F02FC
S11305F081818F7D818307C0BE016F5F7F4F8BDE5A
S11306008981809336010F90DF91CF91FF91EF9113
S1130610BF91AF919F918F917F916F915F914F9116
S11306203F912F910F900BBE0F900FBE0F901F9014
S11306301895CF93DF93E82FF0E0DF01AA0FBB1FDB
S1130640AA0FBB1FAA0FBB1FA458BD4F13968C91B2
S113065080FD44C09FB7F894DF01AA0FBB1FAA0F07
S1130660BB1FAA0FBB1FA458BD4F8C911696CD91EA
S1130670DC911797C80FD11D68838F5F12962C9158
S1130680129782238C9314962D913C9115972F5F8A
S11306903F4F15963C932E93149711962C918213E9
S11306A00FC0DF01AA0FBB1FAA0FBB1FAA0FBB1FDE
S11306B0A458BD4F13968C911397816013968C9315
S11306C0EE0FFF1FEE0FFF1FEE0FFF1FE458FD4F4D
S11306D083818D7F83839FBF81E001C080E0DF91B0
S11306E0CF9108951F920F920FB60F9211240BB65B
S11306F00F922F933F934F935F936F937F938F93B7
S11307009F93AF93BF93EF93FF936091C600809143
S113071000028FDFFF91EF91BF91AF919F918F9175
S11307207F916F915F914F913F912F910F900BBEED
S11307300F900FBE0F901F9018951F920F920FB637
S11307400F9211240BB60F922F933F934F935F9305
S11307506F937F938F939F93AF93BF93EF93FF9385
S11307606091CE0080910A0264DFFF91EF91BF9106
S1130770AF919F918F917F916F915F914F913F9135
S11307802F910F900BBE0F900FBE0F901F901895D6
S11307901F920F920FB60F9211240BB60F922F9344
S11307A03F934F935F936F937F938F939F93AF93F5
S11307B0BF93EF93FF936091D6008091140239DFC9
S11307C0FF91EF91BF91AF919F918F917F916F9125
S11307D05F914F913F912F910F900BBE0F900FBEE1
S11307E00F901F9018951F920F920FB60F9211241D
S11307F00BB60F922F933F934F935F936F937F9317
S11308008F939F93AF93BF93EF93FF9360913601C0
S113081080911E020EDFFF91EF91BF91AF919F91E6
S11308208F917F916F915F914F913F912F910F9095
S11308300BBE0F900FBE0F901F901895E0ECF0E0E8
S1130840908195FFFDCF8093C6000895CF93DF93E9
S1130850EC018881882329F02196F0DF89918111A8
S1130860FCCFDF91CF9108951092C1002FEF39EFA3
S113087050E0215030405040E1F700C0000020918A
S1130880C600603820E772078105910509F48FC01E
S113089024F5603855E275078105910509F463C0B4
S11308A074F4603639E073078105910509F443C097
S11308B0603C72418105910509F449C0CBC06034A4
S11308C028E372078105910509F459C061157B4439
S11308D08105910509F45FC0BDC0611552EC75072F
S11308E051E08507910509F486C074F4611536E971
S11308F073078105910509F466C06115714E810580
S1130900910509F46CC0A6C0603221EA720727E0A1
S11309108207910509F487C0603432E473073FE02D
S11309208307910509F48BC06039704D83409105AC
S113093009F090C06CC080E493E09093C50080936C
S1130940C400E0ECF0E080818260808383C080EAB0
S113095091E09093C5008093C400E0ECF0E08081C6
S11309608260808377C087E690E09093C50080938F
S1130970C400E0ECF0E080818D7F80836BC08AE866
S113098090E09093C5008093C400E0ECF0E0808197
S1130990826080835FC083E390E09093C50080937E
S11309A0C400E0ECF0E080818D7F808353C084E458
S11309B090E09093C5008093C400E0ECF0E0808167
S11309C08260808347C089E190E09093C500809362
S11309D0C400E0ECF0E080818D7F80833BC082E244
S11309E090E09093C5008093C400E0ECF0E0808137
S11309F0826080832FC080E190E09093C500809353
S1130A00C400E0ECF0E080818260808323C087E052
S1130A1090E09093C5008093C400E0ECF0E0808106
S1130A208260808317C083E090E09093C500809338
S1130A30C400E0ECF0E08081826080830BC081E040
S1130A4090E09093C5008093C400E0ECF0E08081D6
S1130A50826080834093C200E1ECF0E08081886191
S1130A60808308951092C9002FEF39EF50E0215090
S1130A7030405040E1F700C000002091CE006038C3
S1130A8020E772078105910509F48FC024F56038C9
S1130A9055E275078105910509F463C074F4603665
S1130AA039E073078105910509F443C0603C724144
S1130AB08105910509F449C0CBC0603428E372076D
S1130AC08105910509F459C061157B44810591059F
S1130AD009F45FC0BDC0611552EC750751E085078C
S1130AE0910509F486C074F4611536E9730781052C
S1130AF0910509F466C06115714E8105910509F4EB
S1130B006CC0A6C0603221EA720727E08207910513
S1130B1009F487C0603432E473073FE0830791052A
S1130B2009F48BC06039704D8340910509F090C081
S1130B306CC080E493E09093CD008093CC00E8EC0B
S1130B40F0E080818260808383C080EA91E09093AA
S1130B50CD008093CC00E8ECF0E08081826080835B
S1130B6077C087E690E09093CD008093CC00E8ECCA
S1130B70F0E080818D7F80836BC08AE890E0909361
S1130B80CD008093CC00E8ECF0E08081826080832B
S1130B905FC083E390E09093CD008093CC00E8ECB9
S1130BA0F0E080818D7F808353C084E490E0909353
S1130BB0CD008093CC00E8ECF0E0808182608083FB
S1130BC047C089E190E09093CD008093CC00E8EC9D
S1130BD0F0E080818D7F80833BC082E290E090933F
S1130BE0CD008093CC00E8ECF0E0808182608083CB
S1130BF02FC080E190E09093CD008093CC00E8EC8E
S1130C00F0E080818260808323C087E090E090934D
S1130C10CD008093CC00E8ECF0E08081826080839A
S1130C2017C083E090E09093CD008093CC00E8EC73
S1130C30F0E08081826080830BC081E090E090933B
S1130C40CD008093CC00E8ECF0E08081826080836A
S1130C504093CA00E9ECF0E08081886180830895C4
S1130C60CF92DF92EF92FF92CF93DF936B017C01DF
S1130C70EA01FADDAE01C701B601F4DEDF91CF91DE
S1130C80FF90EF90DF90CF900895CF93E8ECF0E0E1
S1130C9080818823ECF7C091C8008091CE009091A8
S1130CA0C600CCDD8C2F8C7189F0C4FF03C088E4AE
S1130CB092E0CCDDC3FF03C088E592E0C7DDC2FF4C
S1130CC003C088E692E0C2DD8AE0B8DDCF910895E2
S1130CD0279A85B185B90895052E97FB16F40094DB
S1130CE00FD057FD05D014D007FC02D046F408C03D
S1130CF050954095309521953F4F4F4F5F4F089544
S1130D0090958095709561957F4F8F4F9F4F089573
S1130D10A1E21A2EAA1BBB1BFD010DC0AA1FBB1FFB
S1130D20EE1FFF1FA217B307E407F50720F0A21B6D
S1130D30B30BE40BF50B661F771F881F991F1A94DA
S1130D4069F760957095809590959B01AC01BD0104
S10B0D50CF010895F894FFCFD0
S1130D580000DC0340009C03400000005C034000EA
S1130D681C0340000000FC022000DC0220000000FC
S1130D78BC0220009C022000C000C800D000300142
S1130D8835003400330032000A000B000C000D005B
S1130D9864617461203D2000206672616D696E672C
S1130DA8206572726F722000206F76657272756E9C
S1130DB8206572726F7220002070617269747920E4
S10B0DC86572726F72200000D5
S9030000FC
