S012000053657269616C436F6D6D2E7372656326
S113000071C0000086C0000084C0000082C00000EF
S113001080C000007EC000007CC000007AC00000E8
S113002078C0000076C0000074C0000072C00000F8
S113003070C000006EC000006CC000006AC0000008
S113004068C0000066C0000064C0000062C0000018
S113005060C000005EC000005CC000005AC0000028
S113006058C0000056C0000054C0000052C0000038
S113007050C000004EC000004CC000004AC0000048
S113008048C0000046C0000044C0000042C0000058
S113009040C000003EC000003CC000003AC0000068
S11300A038C0000036C0000034C0000032C0000078
S11300B030C000002EC000002CC000002AC0000088
S11300C028C0000026C0000024C0000022C0000098
S11300D020C000001EC000001CC000001AC00000A8
S11300E018C0000011241FBECFEFD1E2DEBFCDBF88
S11300F000E00CBF12E0A0E0B2E0EAEAF2E000E0C7
S11301000BBF02C007900D92A830B107D9F702D0F7
S1130110CAC076CF26E030E040E05BE460E070E007
S113012080E09AD080E004D0682F80E00FD0FACF2E
S1130130E82FF0E0EE0FFF1FE050FE4F0190F0813A
S1130140E02D80818823ECF786810895E82FF0E084
S1130150EE0FFF1FE050FE4F0190F081E02D8081F3
S113016085FFFDCF66830895603820E77207810517
S1130170910509F456C00CF5603825E27207810533
S1130180910509F445C06CF4603629E072078105D5
S1130190910509F45EC0603C724181059105A9F1A5
S11301A055C0603428E3720781059105A1F16115FA
S11301B07B448105910591F149C061152CE27207D8
S11301C021E082079105B1F164F4611526E9720713
S11301D08105910549F16115714E8105910539F14A
S11301E035C0611524E8720723E08207910541F1C7
S11301F0603920ED720723E08207910521F1611532
S1130200724C8140910511F518C08FEC90E008956F
S113021087E690E0089584E490E0089583E390E015
S1130220089582E290E0089589E190E0089580E1E4
S113023090E008958CE090E0089588E090E00895BF
S113024083E090E0089583E090E008958FEF9FEFBE
S1130250089580EA91E00895EF92FF921F93CF935F
S1130260DF93122FC82FD0E0CC0FDD1FC050DE4F1C
S1130270E880F980CB01BA0177DFF70195838483A5
S1130280E881F9811283E881F98181818061818328
S1130290E881F981818188608183DF91CF911F9109
S10D02A0FF90EF900895F894FFCF4B
S10B02AAC000C800D0003001BF
S9030000FC
